{
  "contractName": "ItemManager",
  "abi": [
    {
      "inputs": [],
      "stateMutability": "nonpayable",
      "type": "constructor"
    },
    {
      "anonymous": false,
      "inputs": [
        {
          "indexed": true,
          "internalType": "address",
          "name": "owner",
          "type": "address"
        },
        {
          "indexed": true,
          "internalType": "address",
          "name": "approved",
          "type": "address"
        },
        {
          "indexed": true,
          "internalType": "uint256",
          "name": "tokenId",
          "type": "uint256"
        }
      ],
      "name": "Approval",
      "type": "event"
    },
    {
      "anonymous": false,
      "inputs": [
        {
          "indexed": true,
          "internalType": "address",
          "name": "owner",
          "type": "address"
        },
        {
          "indexed": true,
          "internalType": "address",
          "name": "operator",
          "type": "address"
        },
        {
          "indexed": false,
          "internalType": "bool",
          "name": "approved",
          "type": "bool"
        }
      ],
      "name": "ApprovalForAll",
      "type": "event"
    },
    {
      "anonymous": false,
      "inputs": [
        {
          "indexed": true,
          "internalType": "address",
          "name": "from",
          "type": "address"
        },
        {
          "indexed": true,
          "internalType": "address",
          "name": "to",
          "type": "address"
        },
        {
          "indexed": true,
          "internalType": "uint256",
          "name": "tokenId",
          "type": "uint256"
        }
      ],
      "name": "Transfer",
      "type": "event"
    },
    {
      "inputs": [
        {
          "internalType": "address",
          "name": "to",
          "type": "address"
        },
        {
          "internalType": "uint256",
          "name": "tokenId",
          "type": "uint256"
        }
      ],
      "name": "approve",
      "outputs": [],
      "stateMutability": "nonpayable",
      "type": "function"
    },
    {
      "inputs": [
        {
          "internalType": "address",
          "name": "owner",
          "type": "address"
        }
      ],
      "name": "balanceOf",
      "outputs": [
        {
          "internalType": "uint256",
          "name": "",
          "type": "uint256"
        }
      ],
      "stateMutability": "view",
      "type": "function"
    },
    {
      "inputs": [
        {
          "internalType": "uint256",
          "name": "tokenId",
          "type": "uint256"
        }
      ],
      "name": "getApproved",
      "outputs": [
        {
          "internalType": "address",
          "name": "",
          "type": "address"
        }
      ],
      "stateMutability": "view",
      "type": "function"
    },
    {
      "inputs": [
        {
          "internalType": "address",
          "name": "owner",
          "type": "address"
        },
        {
          "internalType": "address",
          "name": "operator",
          "type": "address"
        }
      ],
      "name": "isApprovedForAll",
      "outputs": [
        {
          "internalType": "bool",
          "name": "",
          "type": "bool"
        }
      ],
      "stateMutability": "view",
      "type": "function"
    },
    {
      "inputs": [],
      "name": "name",
      "outputs": [
        {
          "internalType": "string",
          "name": "",
          "type": "string"
        }
      ],
      "stateMutability": "view",
      "type": "function"
    },
    {
      "inputs": [
        {
          "internalType": "uint256",
          "name": "tokenId",
          "type": "uint256"
        }
      ],
      "name": "ownerOf",
      "outputs": [
        {
          "internalType": "address",
          "name": "",
          "type": "address"
        }
      ],
      "stateMutability": "view",
      "type": "function"
    },
    {
      "inputs": [
        {
          "internalType": "address",
          "name": "from",
          "type": "address"
        },
        {
          "internalType": "address",
          "name": "to",
          "type": "address"
        },
        {
          "internalType": "uint256",
          "name": "tokenId",
          "type": "uint256"
        }
      ],
      "name": "safeTransferFrom",
      "outputs": [],
      "stateMutability": "nonpayable",
      "type": "function"
    },
    {
      "inputs": [
        {
          "internalType": "address",
          "name": "from",
          "type": "address"
        },
        {
          "internalType": "address",
          "name": "to",
          "type": "address"
        },
        {
          "internalType": "uint256",
          "name": "tokenId",
          "type": "uint256"
        },
        {
          "internalType": "bytes",
          "name": "_data",
          "type": "bytes"
        }
      ],
      "name": "safeTransferFrom",
      "outputs": [],
      "stateMutability": "nonpayable",
      "type": "function"
    },
    {
      "inputs": [
        {
          "internalType": "address",
          "name": "operator",
          "type": "address"
        },
        {
          "internalType": "bool",
          "name": "approved",
          "type": "bool"
        }
      ],
      "name": "setApprovalForAll",
      "outputs": [],
      "stateMutability": "nonpayable",
      "type": "function"
    },
    {
      "inputs": [
        {
          "internalType": "bytes4",
          "name": "interfaceId",
          "type": "bytes4"
        }
      ],
      "name": "supportsInterface",
      "outputs": [
        {
          "internalType": "bool",
          "name": "",
          "type": "bool"
        }
      ],
      "stateMutability": "view",
      "type": "function"
    },
    {
      "inputs": [],
      "name": "symbol",
      "outputs": [
        {
          "internalType": "string",
          "name": "",
          "type": "string"
        }
      ],
      "stateMutability": "view",
      "type": "function"
    },
    {
      "inputs": [
        {
          "internalType": "uint256",
          "name": "tokenId",
          "type": "uint256"
        }
      ],
      "name": "tokenURI",
      "outputs": [
        {
          "internalType": "string",
          "name": "",
          "type": "string"
        }
      ],
      "stateMutability": "view",
      "type": "function"
    },
    {
      "inputs": [
        {
          "internalType": "address",
          "name": "from",
          "type": "address"
        },
        {
          "internalType": "address",
          "name": "to",
          "type": "address"
        },
        {
          "internalType": "uint256",
          "name": "tokenId",
          "type": "uint256"
        }
      ],
      "name": "transferFrom",
      "outputs": [],
      "stateMutability": "nonpayable",
      "type": "function"
    },
    {
      "inputs": [
        {
          "internalType": "uint256",
          "name": "newItemId",
          "type": "uint256"
        },
        {
          "internalType": "address",
          "name": "user",
          "type": "address"
        }
      ],
      "name": "addItemToUser",
      "outputs": [],
      "stateMutability": "nonpayable",
      "type": "function"
    },
    {
      "inputs": [
        {
          "internalType": "address",
          "name": "from",
          "type": "address"
        },
        {
          "internalType": "uint256",
          "name": "itemId",
          "type": "uint256"
        },
        {
          "internalType": "address",
          "name": "to",
          "type": "address"
        }
      ],
      "name": "buyItem",
      "outputs": [
        {
          "internalType": "address",
          "name": "",
          "type": "address"
        }
      ],
      "stateMutability": "nonpayable",
      "type": "function"
    }
  ],
  "bytecode": "0x60806040523480156200001157600080fd5b506040518060400160405280600d81526020017f4d79436f6c6c65637469626c65000000000000000000000000000000000000008152506040518060400160405280600381526020017f4d434f0000000000000000000000000000000000000000000000000000000000815250816000908051906020019062000096929190620000b8565b508060019080519060200190620000af929190620000b8565b505050620001cd565b828054620000c69062000168565b90600052602060002090601f016020900481019282620000ea576000855562000136565b82601f106200010557805160ff191683800117855562000136565b8280016001018555821562000136579182015b828111156200013557825182559160200191906001019062000118565b5b50905062000145919062000149565b5090565b5b80821115620001645760008160009055506001016200014a565b5090565b600060028204905060018216806200018157607f821691505b602082108114156200019857620001976200019e565b5b50919050565b7f4e487b7100000000000000000000000000000000000000000000000000000000600052602260045260246000fd5b61269f80620001dd6000396000f3fe608060405234801561001057600080fd5b50600436106100f55760003560e01c80636352211e11610097578063a22cb46511610066578063a22cb46514610296578063b88d4fde146102b2578063c87b56dd146102ce578063e985e9c5146102fe576100f5565b80636352211e146101fc57806370a082311461022c578063813fbbf61461025c57806395d89b4114610278576100f5565b8063095ea7b3116100d3578063095ea7b31461017857806323b872dd14610194578063259ca365146101b057806342842e0e146101e0576100f5565b806301ffc9a7146100fa57806306fdde031461012a578063081812fc14610148575b600080fd5b610114600480360381019061010f9190611933565b61032e565b6040516101219190612067565b60405180910390f35b610132610410565b60405161013f9190612082565b60405180910390f35b610162600480360381019061015d9190611985565b6104a2565b60405161016f9190612000565b60405180910390f35b610192600480360381019061018d91906118a8565b610527565b005b6101ae60048036038101906101a991906117a2565b61063f565b005b6101ca60048036038101906101c591906118e4565b61069f565b6040516101d79190612000565b60405180910390f35b6101fa60048036038101906101f591906117a2565b6106b6565b005b61021660048036038101906102119190611985565b6106d6565b6040516102239190612000565b60405180910390f35b6102466004803603810190610241919061173d565b610788565b6040516102539190612264565b60405180910390f35b610276600480360381019061027191906119ae565b610840565b005b61028061084e565b60405161028d9190612082565b60405180910390f35b6102b060048036038101906102ab919061186c565b6108e0565b005b6102cc60048036038101906102c791906117f1565b610a61565b005b6102e860048036038101906102e39190611985565b610ac3565b6040516102f59190612082565b60405180910390f35b61031860048036038101906103139190611766565b610b6a565b6040516103259190612067565b60405180910390f35b60007f80ac58cd000000000000000000000000000000000000000000000000000000007bffffffffffffffffffffffffffffffffffffffffffffffffffffffff1916827bffffffffffffffffffffffffffffffffffffffffffffffffffffffff191614806103f957507f5b5e139f000000000000000000000000000000000000000000000000000000007bffffffffffffffffffffffffffffffffffffffffffffffffffffffff1916827bffffffffffffffffffffffffffffffffffffffffffffffffffffffff1916145b80610409575061040882610bfe565b5b9050919050565b60606000805461041f90612494565b80601f016020809104026020016040519081016040528092919081815260200182805461044b90612494565b80156104985780601f1061046d57610100808354040283529160200191610498565b820191906000526020600020905b81548152906001019060200180831161047b57829003601f168201915b5050505050905090565b60006104ad82610c68565b6104ec576040517f08c379a00000000000000000000000000000000000000000000000000000000081526004016104e3906121c4565b60405180910390fd5b6004600083815260200190815260200160002060009054906101000a900473ffffffffffffffffffffffffffffffffffffffff169050919050565b6000610532826106d6565b90508073ffffffffffffffffffffffffffffffffffffffff168373ffffffffffffffffffffffffffffffffffffffff1614156105a3576040517f08c379a000000000000000000000000000000000000000000000000000000000815260040161059a90612224565b60405180910390fd5b8073ffffffffffffffffffffffffffffffffffffffff166105c2610cd4565b73ffffffffffffffffffffffffffffffffffffffff1614806105f157506105f0816105eb610cd4565b610b6a565b5b610630576040517f08c379a000000000000000000000000000000000000000000000000000000000815260040161062790612144565b60405180910390fd5b61063a8383610cdc565b505050565b61065061064a610cd4565b82610d95565b61068f576040517f08c379a000000000000000000000000000000000000000000000000000000000815260040161068690612244565b60405180910390fd5b61069a838383610e73565b505050565b60006106ac84838561063f565b8390509392505050565b6106d183838360405180602001604052806000815250610a61565b505050565b6000806002600084815260200190815260200160002060009054906101000a900473ffffffffffffffffffffffffffffffffffffffff169050600073ffffffffffffffffffffffffffffffffffffffff168173ffffffffffffffffffffffffffffffffffffffff16141561077f576040517f08c379a000000000000000000000000000000000000000000000000000000000815260040161077690612184565b60405180910390fd5b80915050919050565b60008073ffffffffffffffffffffffffffffffffffffffff168273ffffffffffffffffffffffffffffffffffffffff1614156107f9576040517f08c379a00000000000000000000000000000000000000000000000000000000081526004016107f090612164565b60405180910390fd5b600360008373ffffffffffffffffffffffffffffffffffffffff1673ffffffffffffffffffffffffffffffffffffffff168152602001908152602001600020549050919050565b61084a81836110cf565b5050565b60606001805461085d90612494565b80601f016020809104026020016040519081016040528092919081815260200182805461088990612494565b80156108d65780601f106108ab576101008083540402835291602001916108d6565b820191906000526020600020905b8154815290600101906020018083116108b957829003601f168201915b5050505050905090565b6108e8610cd4565b73ffffffffffffffffffffffffffffffffffffffff168273ffffffffffffffffffffffffffffffffffffffff161415610956576040517f08c379a000000000000000000000000000000000000000000000000000000000815260040161094d90612104565b60405180910390fd5b8060056000610963610cd4565b73ffffffffffffffffffffffffffffffffffffffff1673ffffffffffffffffffffffffffffffffffffffff16815260200190815260200160002060008473ffffffffffffffffffffffffffffffffffffffff1673ffffffffffffffffffffffffffffffffffffffff16815260200190815260200160002060006101000a81548160ff0219169083151502179055508173ffffffffffffffffffffffffffffffffffffffff16610a10610cd4565b73ffffffffffffffffffffffffffffffffffffffff167f17307eab39ab6107e8899845ad3d59bd9653f200f220920489ca2b5937696c3183604051610a559190612067565b60405180910390a35050565b610a72610a6c610cd4565b83610d95565b610ab1576040517f08c379a0000000000000000000000000000000000000000000000000000000008152600401610aa890612244565b60405180910390fd5b610abd8484848461129d565b50505050565b6060610ace82610c68565b610b0d576040517f08c379a0000000000000000000000000000000000000000000000000000000008152600401610b0490612204565b60405180910390fd5b6000610b176112f9565b90506000815111610b375760405180602001604052806000815250610b62565b80610b4184611310565b604051602001610b52929190611fdc565b6040516020818303038152906040525b915050919050565b6000600560008473ffffffffffffffffffffffffffffffffffffffff1673ffffffffffffffffffffffffffffffffffffffff16815260200190815260200160002060008373ffffffffffffffffffffffffffffffffffffffff1673ffffffffffffffffffffffffffffffffffffffff16815260200190815260200160002060009054906101000a900460ff16905092915050565b60007f01ffc9a7000000000000000000000000000000000000000000000000000000007bffffffffffffffffffffffffffffffffffffffffffffffffffffffff1916827bffffffffffffffffffffffffffffffffffffffffffffffffffffffff1916149050919050565b60008073ffffffffffffffffffffffffffffffffffffffff166002600084815260200190815260200160002060009054906101000a900473ffffffffffffffffffffffffffffffffffffffff1673ffffffffffffffffffffffffffffffffffffffff1614159050919050565b600033905090565b816004600083815260200190815260200160002060006101000a81548173ffffffffffffffffffffffffffffffffffffffff021916908373ffffffffffffffffffffffffffffffffffffffff160217905550808273ffffffffffffffffffffffffffffffffffffffff16610d4f836106d6565b73ffffffffffffffffffffffffffffffffffffffff167f8c5be1e5ebec7d5bd14f71427d1e84f3dd0314c0f7b2291e5b200ac8c7c3b92560405160405180910390a45050565b6000610da082610c68565b610ddf576040517f08c379a0000000000000000000000000000000000000000000000000000000008152600401610dd690612124565b60405180910390fd5b6000610dea836106d6565b90508073ffffffffffffffffffffffffffffffffffffffff168473ffffffffffffffffffffffffffffffffffffffff161480610e5957508373ffffffffffffffffffffffffffffffffffffffff16610e41846104a2565b73ffffffffffffffffffffffffffffffffffffffff16145b80610e6a5750610e698185610b6a565b5b91505092915050565b8273ffffffffffffffffffffffffffffffffffffffff16610e93826106d6565b73ffffffffffffffffffffffffffffffffffffffff1614610ee9576040517f08c379a0000000000000000000000000000000000000000000000000000000008152600401610ee0906121e4565b60405180910390fd5b600073ffffffffffffffffffffffffffffffffffffffff168273ffffffffffffffffffffffffffffffffffffffff161415610f59576040517f08c379a0000000000000000000000000000000000000000000000000000000008152600401610f50906120e4565b60405180910390fd5b610f648383836114bd565b610f6f600082610cdc565b6001600360008573ffffffffffffffffffffffffffffffffffffffff1673ffffffffffffffffffffffffffffffffffffffff1681526020019081526020016000206000828254610fbf91906123aa565b925050819055506001600360008473ffffffffffffffffffffffffffffffffffffffff1673ffffffffffffffffffffffffffffffffffffffff16815260200190815260200160002060008282546110169190612323565b92505081905550816002600083815260200190815260200160002060006101000a81548173ffffffffffffffffffffffffffffffffffffffff021916908373ffffffffffffffffffffffffffffffffffffffff160217905550808273ffffffffffffffffffffffffffffffffffffffff168473ffffffffffffffffffffffffffffffffffffffff167fddf252ad1be2c89b69c2b068fc378daa952ba7f163c4a11628f55a4df523b3ef60405160405180910390a4505050565b600073ffffffffffffffffffffffffffffffffffffffff168273ffffffffffffffffffffffffffffffffffffffff16141561113f576040517f08c379a0000000000000000000000000000000000000000000000000000000008152600401611136906121a4565b60405180910390fd5b61114881610c68565b15611188576040517f08c379a000000000000000000000000000000000000000000000000000000000815260040161117f906120c4565b60405180910390fd5b611194600083836114bd565b6001600360008473ffffffffffffffffffffffffffffffffffffffff1673ffffffffffffffffffffffffffffffffffffffff16815260200190815260200160002060008282546111e49190612323565b92505081905550816002600083815260200190815260200160002060006101000a81548173ffffffffffffffffffffffffffffffffffffffff021916908373ffffffffffffffffffffffffffffffffffffffff160217905550808273ffffffffffffffffffffffffffffffffffffffff16600073ffffffffffffffffffffffffffffffffffffffff167fddf252ad1be2c89b69c2b068fc378daa952ba7f163c4a11628f55a4df523b3ef60405160405180910390a45050565b6112a8848484610e73565b6112b4848484846114c2565b6112f3576040517f08c379a00000000000000000000000000000000000000000000000000000000081526004016112ea906120a4565b60405180910390fd5b50505050565b606060405180602001604052806000815250905090565b60606000821415611358576040518060400160405280600181526020017f300000000000000000000000000000000000000000000000000000000000000081525090506114b8565b600082905060005b6000821461138a578080611373906124c6565b915050600a826113839190612379565b9150611360565b60008167ffffffffffffffff8111156113cc577f4e487b7100000000000000000000000000000000000000000000000000000000600052604160045260246000fd5b6040519080825280601f01601f1916602001820160405280156113fe5781602001600182028036833780820191505090505b5090505b600085146114b15760018261141791906123aa565b9150600a85611426919061250f565b60306114329190612323565b60f81b81838151811061146e577f4e487b7100000000000000000000000000000000000000000000000000000000600052603260045260246000fd5b60200101907effffffffffffffffffffffffffffffffffffffffffffffffffffffffffffff1916908160001a905350600a856114aa9190612379565b9450611402565b8093505050505b919050565b505050565b60006114e38473ffffffffffffffffffffffffffffffffffffffff16611659565b1561164c578373ffffffffffffffffffffffffffffffffffffffff1663150b7a0261150c610cd4565b8786866040518563ffffffff1660e01b815260040161152e949392919061201b565b602060405180830381600087803b15801561154857600080fd5b505af192505050801561157957506040513d601f19601f82011682018060405250810190611576919061195c565b60015b6115fc573d80600081146115a9576040519150601f19603f3d011682016040523d82523d6000602084013e6115ae565b606091505b506000815114156115f4576040517f08c379a00000000000000000000000000000000000000000000000000000000081526004016115eb906120a4565b60405180910390fd5b805181602001fd5b63150b7a0260e01b7bffffffffffffffffffffffffffffffffffffffffffffffffffffffff1916817bffffffffffffffffffffffffffffffffffffffffffffffffffffffff191614915050611651565b600190505b949350505050565b600080823b905060008111915050919050565b600061167f61167a846122b0565b61227f565b90508281526020810184848401111561169757600080fd5b6116a2848285612452565b509392505050565b6000813590506116b98161260d565b92915050565b6000813590506116ce81612624565b92915050565b6000813590506116e38161263b565b92915050565b6000815190506116f88161263b565b92915050565b600082601f83011261170f57600080fd5b813561171f84826020860161166c565b91505092915050565b60008135905061173781612652565b92915050565b60006020828403121561174f57600080fd5b600061175d848285016116aa565b91505092915050565b6000806040838503121561177957600080fd5b6000611787858286016116aa565b9250506020611798858286016116aa565b9150509250929050565b6000806000606084860312156117b757600080fd5b60006117c5868287016116aa565b93505060206117d6868287016116aa565b92505060406117e786828701611728565b9150509250925092565b6000806000806080858703121561180757600080fd5b6000611815878288016116aa565b9450506020611826878288016116aa565b935050604061183787828801611728565b925050606085013567ffffffffffffffff81111561185457600080fd5b611860878288016116fe565b91505092959194509250565b6000806040838503121561187f57600080fd5b600061188d858286016116aa565b925050602061189e858286016116bf565b9150509250929050565b600080604083850312156118bb57600080fd5b60006118c9858286016116aa565b92505060206118da85828601611728565b9150509250929050565b6000806000606084860312156118f957600080fd5b6000611907868287016116aa565b935050602061191886828701611728565b9250506040611929868287016116aa565b9150509250925092565b60006020828403121561194557600080fd5b6000611953848285016116d4565b91505092915050565b60006020828403121561196e57600080fd5b600061197c848285016116e9565b91505092915050565b60006020828403121561199757600080fd5b60006119a584828501611728565b91505092915050565b600080604083850312156119c157600080fd5b60006119cf85828601611728565b92505060206119e0858286016116aa565b9150509250929050565b6119f3816123de565b82525050565b611a02816123f0565b82525050565b6000611a13826122e0565b611a1d81856122f6565b9350611a2d818560208601612461565b611a36816125fc565b840191505092915050565b6000611a4c826122eb565b611a568185612307565b9350611a66818560208601612461565b611a6f816125fc565b840191505092915050565b6000611a85826122eb565b611a8f8185612318565b9350611a9f818560208601612461565b80840191505092915050565b6000611ab8603283612307565b91507f4552433732313a207472616e7366657220746f206e6f6e20455243373231526560008301527f63656976657220696d706c656d656e74657200000000000000000000000000006020830152604082019050919050565b6000611b1e601c83612307565b91507f4552433732313a20746f6b656e20616c7265616479206d696e746564000000006000830152602082019050919050565b6000611b5e602483612307565b91507f4552433732313a207472616e7366657220746f20746865207a65726f2061646460008301527f72657373000000000000000000000000000000000000000000000000000000006020830152604082019050919050565b6000611bc4601983612307565b91507f4552433732313a20617070726f766520746f2063616c6c6572000000000000006000830152602082019050919050565b6000611c04602c83612307565b91507f4552433732313a206f70657261746f7220717565727920666f72206e6f6e657860008301527f697374656e7420746f6b656e00000000000000000000000000000000000000006020830152604082019050919050565b6000611c6a603883612307565b91507f4552433732313a20617070726f76652063616c6c6572206973206e6f74206f7760008301527f6e6572206e6f7220617070726f76656420666f7220616c6c00000000000000006020830152604082019050919050565b6000611cd0602a83612307565b91507f4552433732313a2062616c616e636520717565727920666f7220746865207a6560008301527f726f2061646472657373000000000000000000000000000000000000000000006020830152604082019050919050565b6000611d36602983612307565b91507f4552433732313a206f776e657220717565727920666f72206e6f6e657869737460008301527f656e7420746f6b656e00000000000000000000000000000000000000000000006020830152604082019050919050565b6000611d9c602083612307565b91507f4552433732313a206d696e7420746f20746865207a65726f20616464726573736000830152602082019050919050565b6000611ddc602c83612307565b91507f4552433732313a20617070726f76656420717565727920666f72206e6f6e657860008301527f697374656e7420746f6b656e00000000000000000000000000000000000000006020830152604082019050919050565b6000611e42602983612307565b91507f4552433732313a207472616e73666572206f6620746f6b656e2074686174206960008301527f73206e6f74206f776e00000000000000000000000000000000000000000000006020830152604082019050919050565b6000611ea8602f83612307565b91507f4552433732314d657461646174613a2055524920717565727920666f72206e6f60008301527f6e6578697374656e7420746f6b656e00000000000000000000000000000000006020830152604082019050919050565b6000611f0e602183612307565b91507f4552433732313a20617070726f76616c20746f2063757272656e74206f776e6560008301527f72000000000000000000000000000000000000000000000000000000000000006020830152604082019050919050565b6000611f74603183612307565b91507f4552433732313a207472616e736665722063616c6c6572206973206e6f74206f60008301527f776e6572206e6f7220617070726f7665640000000000000000000000000000006020830152604082019050919050565b611fd681612448565b82525050565b6000611fe88285611a7a565b9150611ff48284611a7a565b91508190509392505050565b600060208201905061201560008301846119ea565b92915050565b600060808201905061203060008301876119ea565b61203d60208301866119ea565b61204a6040830185611fcd565b818103606083015261205c8184611a08565b905095945050505050565b600060208201905061207c60008301846119f9565b92915050565b6000602082019050818103600083015261209c8184611a41565b905092915050565b600060208201905081810360008301526120bd81611aab565b9050919050565b600060208201905081810360008301526120dd81611b11565b9050919050565b600060208201905081810360008301526120fd81611b51565b9050919050565b6000602082019050818103600083015261211d81611bb7565b9050919050565b6000602082019050818103600083015261213d81611bf7565b9050919050565b6000602082019050818103600083015261215d81611c5d565b9050919050565b6000602082019050818103600083015261217d81611cc3565b9050919050565b6000602082019050818103600083015261219d81611d29565b9050919050565b600060208201905081810360008301526121bd81611d8f565b9050919050565b600060208201905081810360008301526121dd81611dcf565b9050919050565b600060208201905081810360008301526121fd81611e35565b9050919050565b6000602082019050818103600083015261221d81611e9b565b9050919050565b6000602082019050818103600083015261223d81611f01565b9050919050565b6000602082019050818103600083015261225d81611f67565b9050919050565b60006020820190506122796000830184611fcd565b92915050565b6000604051905081810181811067ffffffffffffffff821117156122a6576122a56125cd565b5b8060405250919050565b600067ffffffffffffffff8211156122cb576122ca6125cd565b5b601f19601f8301169050602081019050919050565b600081519050919050565b600081519050919050565b600082825260208201905092915050565b600082825260208201905092915050565b600081905092915050565b600061232e82612448565b915061233983612448565b9250827fffffffffffffffffffffffffffffffffffffffffffffffffffffffffffffffff0382111561236e5761236d612540565b5b828201905092915050565b600061238482612448565b915061238f83612448565b92508261239f5761239e61256f565b5b828204905092915050565b60006123b582612448565b91506123c083612448565b9250828210156123d3576123d2612540565b5b828203905092915050565b60006123e982612428565b9050919050565b60008115159050919050565b60007fffffffff0000000000000000000000000000000000000000000000000000000082169050919050565b600073ffffffffffffffffffffffffffffffffffffffff82169050919050565b6000819050919050565b82818337600083830152505050565b60005b8381101561247f578082015181840152602081019050612464565b8381111561248e576000848401525b50505050565b600060028204905060018216806124ac57607f821691505b602082108114156124c0576124bf61259e565b5b50919050565b60006124d182612448565b91507fffffffffffffffffffffffffffffffffffffffffffffffffffffffffffffffff82141561250457612503612540565b5b600182019050919050565b600061251a82612448565b915061252583612448565b9250826125355761253461256f565b5b828206905092915050565b7f4e487b7100000000000000000000000000000000000000000000000000000000600052601160045260246000fd5b7f4e487b7100000000000000000000000000000000000000000000000000000000600052601260045260246000fd5b7f4e487b7100000000000000000000000000000000000000000000000000000000600052602260045260246000fd5b7f4e487b7100000000000000000000000000000000000000000000000000000000600052604160045260246000fd5b6000601f19601f8301169050919050565b612616816123de565b811461262157600080fd5b50565b61262d816123f0565b811461263857600080fd5b50565b612644816123fc565b811461264f57600080fd5b50565b61265b81612448565b811461266657600080fd5b5056fea26469706673582212203a96dd798ecf94cce79bf066c0a434287ee990bf024491c14fa03ad18a6e140b64736f6c63430008000033",
  "immutableReferences": {},
  "source": "pragma solidity ^0.8.0;\r\n\r\nimport \"@openzeppelin/contracts/token/ERC721/ERC721.sol\";\r\nimport \"./PaymentManager.sol\";\r\n\r\ncontract ItemManager is ERC721 {\r\n    constructor() ERC721(\"MyCollectible\", \"MCO\") {}\r\n\r\n    function addItemToUser(uint256 newItemId, address user) external {\r\n        _mint(user, newItemId);\r\n    }\r\n\r\n    function buyItem(\r\n        address from,\r\n        uint256 itemId,\r\n        address to\r\n    ) external returns (address) {\r\n        transferFrom(from, to, itemId);\r\n        return from;\r\n    }\r\n}\r\n",
  "sourcePath": "C:/Users/EDISON/Desktop/git_projects/block-chain-ecomerce/node-react-ecommerce/contracts/ItemManager.sol",
  "compiler": {
    "name": "solc",
    "version": "0.8.0+commit.c7dfd78e.Emscripten.clang"
  },
  "schemaVersion": "3.4.1",
  "updatedAt": "2021-07-15T13:24:13.345Z",
  "devdoc": {
    "kind": "dev",
    "methods": {
      "approve(address,uint256)": {
        "details": "See {IERC721-approve}."
      },
      "balanceOf(address)": {
        "details": "See {IERC721-balanceOf}."
      },
      "getApproved(uint256)": {
        "details": "See {IERC721-getApproved}."
      },
      "isApprovedForAll(address,address)": {
        "details": "See {IERC721-isApprovedForAll}."
      },
      "name()": {
        "details": "See {IERC721Metadata-name}."
      },
      "ownerOf(uint256)": {
        "details": "See {IERC721-ownerOf}."
      },
      "safeTransferFrom(address,address,uint256)": {
        "details": "See {IERC721-safeTransferFrom}."
      },
      "safeTransferFrom(address,address,uint256,bytes)": {
        "details": "See {IERC721-safeTransferFrom}."
      },
      "setApprovalForAll(address,bool)": {
        "details": "See {IERC721-setApprovalForAll}."
      },
      "supportsInterface(bytes4)": {
        "details": "See {IERC165-supportsInterface}."
      },
      "symbol()": {
        "details": "See {IERC721Metadata-symbol}."
      },
      "tokenURI(uint256)": {
        "details": "See {IERC721Metadata-tokenURI}."
      },
      "transferFrom(address,address,uint256)": {
        "details": "See {IERC721-transferFrom}."
      }
    },
    "version": 1
  },
  "userdoc": {
    "kind": "user",
    "methods": {},
    "version": 1
  }
}